{
  "contractName": "Adoption",
  "abi": [
    {
      "inputs": [],
      "payable": false,
      "stateMutability": "nonpayable",
      "type": "constructor"
    },
    {
      "anonymous": false,
      "inputs": [
        {
          "indexed": false,
          "internalType": "uint256",
          "name": "petId",
          "type": "uint256"
        }
      ],
      "name": "AdoptedAnimal",
      "type": "event"
    },
    {
      "anonymous": false,
      "inputs": [
        {
          "indexed": false,
          "internalType": "uint256",
          "name": "petId",
          "type": "uint256"
        }
      ],
      "name": "ReturnAnimal",
      "type": "event"
    },
    {
      "anonymous": false,
      "inputs": [
        {
          "indexed": false,
          "internalType": "uint256",
          "name": "petId",
          "type": "uint256"
        }
      ],
      "name": "voteAnimal",
      "type": "event"
    },
    {
      "constant": true,
      "inputs": [
        {
          "internalType": "uint256",
          "name": "",
          "type": "uint256"
        }
      ],
      "name": "adopters",
      "outputs": [
        {
          "internalType": "address",
          "name": "",
          "type": "address"
        }
      ],
      "payable": false,
      "stateMutability": "view",
      "type": "function"
    },
    {
      "constant": true,
      "inputs": [
        {
          "internalType": "uint256",
          "name": "",
          "type": "uint256"
        }
      ],
      "name": "candidates",
      "outputs": [
        {
          "internalType": "uint256",
          "name": "id",
          "type": "uint256"
        },
        {
          "internalType": "string",
          "name": "name",
          "type": "string"
        },
        {
          "internalType": "uint256",
          "name": "count",
          "type": "uint256"
        }
      ],
      "payable": false,
      "stateMutability": "view",
      "type": "function"
    },
    {
      "constant": true,
      "inputs": [],
      "name": "petsCount",
      "outputs": [
        {
          "internalType": "uint256",
          "name": "",
          "type": "uint256"
        }
      ],
      "payable": false,
      "stateMutability": "view",
      "type": "function"
    },
    {
      "constant": true,
      "inputs": [
        {
          "internalType": "address",
          "name": "",
          "type": "address"
        }
      ],
      "name": "voters",
      "outputs": [
        {
          "internalType": "bool",
          "name": "",
          "type": "bool"
        }
      ],
      "payable": false,
      "stateMutability": "view",
      "type": "function"
    },
    {
      "constant": false,
      "inputs": [
        {
          "internalType": "uint256",
          "name": "petId",
          "type": "uint256"
        }
      ],
      "name": "adopt",
      "outputs": [
        {
          "internalType": "uint256",
          "name": "",
          "type": "uint256"
        }
      ],
      "payable": false,
      "stateMutability": "nonpayable",
      "type": "function"
    },
    {
      "constant": true,
      "inputs": [],
      "name": "getAdopters",
      "outputs": [
        {
          "internalType": "address[16]",
          "name": "",
          "type": "address[16]"
        }
      ],
      "payable": false,
      "stateMutability": "view",
      "type": "function"
    },
    {
      "constant": false,
      "inputs": [
        {
          "internalType": "uint256",
          "name": "petId",
          "type": "uint256"
        }
      ],
      "name": "returnBack",
      "outputs": [
        {
          "internalType": "uint256",
          "name": "",
          "type": "uint256"
        }
      ],
      "payable": false,
      "stateMutability": "nonpayable",
      "type": "function"
    },
    {
      "constant": false,
      "inputs": [
        {
          "internalType": "uint256",
          "name": "petId",
          "type": "uint256"
        }
      ],
      "name": "vote",
      "outputs": [],
      "payable": false,
      "stateMutability": "nonpayable",
      "type": "function"
    }
  ],
  "bytecode": "0x60806040523480156200001157600080fd5b50620000586040518060400160405280600681526020017f46726965646100000000000000000000000000000000000000000000000000008152506200047860201b60201c565b6200009e6040518060400160405280600481526020017f47696e61000000000000000000000000000000000000000000000000000000008152506200047860201b60201c565b620000e46040518060400160405280600781526020017f436f6c6c696e73000000000000000000000000000000000000000000000000008152506200047860201b60201c565b6200012a6040518060400160405280600781526020017f4d656c69737361000000000000000000000000000000000000000000000000008152506200047860201b60201c565b620001706040518060400160405280600781526020017f4a65616e696e65000000000000000000000000000000000000000000000000008152506200047860201b60201c565b620001b66040518060400160405280600581526020017f456c7669610000000000000000000000000000000000000000000000000000008152506200047860201b60201c565b620001fc6040518060400160405280600781526020017f4c617469736861000000000000000000000000000000000000000000000000008152506200047860201b60201c565b620002426040518060400160405280600781526020017f436f6c656d616e000000000000000000000000000000000000000000000000008152506200047860201b60201c565b620002886040518060400160405280600781526020017f4e6963686f6c65000000000000000000000000000000000000000000000000008152506200047860201b60201c565b620002ce6040518060400160405280600481526020017f4672616e000000000000000000000000000000000000000000000000000000008152506200047860201b60201c565b620003146040518060400160405280600681526020017f4c656f6e6f7200000000000000000000000000000000000000000000000000008152506200047860201b60201c565b6200035a6040518060400160405280600481526020017f4465616e000000000000000000000000000000000000000000000000000000008152506200047860201b60201c565b620003a06040518060400160405280600981526020017f53746576656e736f6e00000000000000000000000000000000000000000000008152506200047860201b60201c565b620003e66040518060400160405280600881526020017f4b72697374696e610000000000000000000000000000000000000000000000008152506200047860201b60201c565b6200042c6040518060400160405280600581526020017f457468656c0000000000000000000000000000000000000000000000000000008152506200047860201b60201c565b620004726040518060400160405280600581526020017f54657272790000000000000000000000000000000000000000000000000000008152506200047860201b60201c565b620005a5565b601260008154809291906001019190505550604051806060016040528060125481526020018281526020016000815250601160006012548152602001908152602001600020600082015181600001556020820151816001019080519060200190620004e5929190620004f6565b506040820151816002015590505050565b828054600181600116156101000203166002900490600052602060002090601f016020900481019282601f106200053957805160ff19168380011785556200056a565b828001600101855582156200056a579182015b82811115620005695782518255916020019190600101906200054c565b5b5090506200057991906200057d565b5090565b620005a291905b808211156200059e57600081600090555060010162000584565b5090565b90565b61079c80620005b56000396000f3fe608060405234801561001057600080fd5b50600436106100885760003560e01c80638588b2c51161005b5780638588b2c514610224578063a3ec138d14610266578063d1f143e1146102c2578063fd8c175d1461030457610088565b80630121b93f1461008d5780633477ee2e146100bb5780633de4eb171461017057806343ae80d3146101b6575b600080fd5b6100b9600480360360208110156100a357600080fd5b8101908080359060200190929190505050610322565b005b6100e7600480360360208110156100d157600080fd5b81019080803590602001909291905050506103f5565b6040518084815260200180602001838152602001828103825284818151815260200191508051906020019080838360005b83811015610133578082015181840152602081019050610118565b50505050905090810190601f1680156101605780820380516001836020036101000a031916815260200191505b5094505050505060405180910390f35b6101786104b7565b6040518082601060200280838360005b838110156101a3578082015181840152602081019050610188565b5050505090500191505060405180910390f35b6101e2600480360360208110156101cc57600080fd5b8101908080359060200190929190505050610538565b604051808273ffffffffffffffffffffffffffffffffffffffff1673ffffffffffffffffffffffffffffffffffffffff16815260200191505060405180910390f35b6102506004803603602081101561023a57600080fd5b810190808035906020019092919050505061056b565b6040518082815260200191505060405180910390f35b6102a86004803603602081101561027c57600080fd5b81019080803573ffffffffffffffffffffffffffffffffffffffff169060200190929190505050610613565b604051808215151515815260200191505060405180910390f35b6102ee600480360360208110156102d857600080fd5b8101908080359060200190929190505050610633565b6040518082815260200191505060405180910390f35b61030c61073e565b6040518082815260200191505060405180910390f35b600081101580156103345750600f8111155b61033d57600080fd5b60116000828152602001908152602001600020600201600081548092919060010191905055506001601060003373ffffffffffffffffffffffffffffffffffffffff1673ffffffffffffffffffffffffffffffffffffffff16815260200190815260200160002060006101000a81548160ff0219169083151502179055507f7be1c3063d6eb5b218c4bb54b97a5e82a6f8e5bf10b3e6e34e5e9877a4796214816040518082815260200191505060405180910390a150565b6011602052806000526040600020600091509050806000015490806001018054600181600116156101000203166002900480601f0160208091040260200160405190810160405280929190818152602001828054600181600116156101000203166002900480156104a75780601f1061047c576101008083540402835291602001916104a7565b820191906000526020600020905b81548152906001019060200180831161048a57829003601f168201915b5050505050908060020154905083565b6104bf610744565b600060108060200260405190810160405280929190826010801561052e576020028201915b8160009054906101000a900473ffffffffffffffffffffffffffffffffffffffff1673ffffffffffffffffffffffffffffffffffffffff16815260200190600101908083116104e4575b5050505050905090565b6000816010811061054557fe5b016000915054906101000a900473ffffffffffffffffffffffffffffffffffffffff1681565b600080821015801561057e5750600f8211155b61058757600080fd5b336000836010811061059557fe5b0160006101000a81548173ffffffffffffffffffffffffffffffffffffffff021916908373ffffffffffffffffffffffffffffffffffffffff1602179055507fab56fd8de4404d6cdebeb82369b2b2b6280895a71028d2121bb173049a3be57f826040518082815260200191505060405180910390a1819050919050565b60106020528060005260406000206000915054906101000a900460ff1681565b60008082101580156106465750600f8211155b61064f57600080fd5b3373ffffffffffffffffffffffffffffffffffffffff166000836010811061067357fe5b0160009054906101000a900473ffffffffffffffffffffffffffffffffffffffff1673ffffffffffffffffffffffffffffffffffffffff1614156106ff5760008083601081106106bf57fe5b0160006101000a81548173ffffffffffffffffffffffffffffffffffffffff021916908373ffffffffffffffffffffffffffffffffffffffff1602179055505b7fc2f0686a6580a9f7cc6700dc686f543b4f94c9ba07f0ef6a3a5c6a06eb378f63826040518082815260200191505060405180910390a1819050919050565b60125481565b60405180610200016040528060109060208202803883398082019150509050509056fea265627a7a723158200d57e099c40850c784836b28ec86b6be54f934acc0b3b0de07c9c4d30b0fa35c64736f6c63430005110032",
  "source": "pragma solidity ^0.5.0;\n\ncontract Adoption {\n\taddress[16] public adopters;\n\n\tevent AdoptedAnimal(uint petId);\n\n\t// Adopting a pet\n\tfunction adopt(uint petId) public returns (uint) {\n  \t\trequire(petId >= 0 && petId <= 15);\n\n  \t\tadopters[petId] = msg.sender;\n\n\t\temit AdoptedAnimal(petId);\n\n \t\treturn petId;\n\t}\n\n\t// Retrieving the adopters\n\tfunction getAdopters() public view returns (address[16] memory) {\n \t \treturn adopters;\n\t}\n\n    event ReturnAnimal(uint petId);\n\n    function returnBack(uint petId) public returns (uint) {\n        require(petId >= 0 && petId <= 15);\n\n        if (adopters[petId] == msg.sender) {\n            adopters[petId] = address(0);\n        }\n\n        emit ReturnAnimal(petId);\n\n        return petId;\n    }\n\n\tstruct Pet {\n\t\tuint id;\n\t\tstring name;\n\t\tuint count;\n\t}\n\n\tmapping(address => bool) public voters;\n\tmapping(uint => Pet) public candidates;\n\tuint public petsCount;\n\n\tfunction addPet(string memory _name) private {\n\t\tpetsCount ++;\n\t\tcandidates[petsCount] = Pet(petsCount, _name, 0);\n\t}\n\n\tconstructor () public {\n\t\taddPet(\"Frieda\");\n\t\taddPet(\"Gina\");\n\t\taddPet(\"Collins\");\n\t\taddPet(\"Melissa\");\n\t\taddPet(\"Jeanine\");\n\t\taddPet(\"Elvia\");\n\t\taddPet(\"Latisha\");\n\t\taddPet(\"Coleman\");\n\t\taddPet(\"Nichole\");\n\t\taddPet(\"Fran\");\n\t\taddPet(\"Leonor\");\n\t\taddPet(\"Dean\");\n\t\taddPet(\"Stevenson\");\n\t\taddPet(\"Kristina\");\n\t\taddPet(\"Ethel\");\n\t\taddPet(\"Terry\");\n\t}\n\n\tevent voteAnimal (uint petId);\n\n\tfunction vote(uint petId) public {\n\t\trequire(petId >= 0 && petId <= 15);\n\t\tcandidates[petId].count ++;\n\t\tvoters[msg.sender] = true;\n\n\t\temit voteAnimal(petId);\n\t}\n\n\n}",
  "sourcePath": "/Users/wuyuemeng/Desktop/pet-shop-box-master/contracts/Adoption.sol",
  "compiler": {
    "name": "solc",
    "version": "0.5.17+commit.d19bba13.Emscripten.clang"
  },
  "schemaVersion": "3.4.14",
  "updatedAt": "2023-08-14T04:12:56.887Z",
  "networkType": "ethereum",
  "devdoc": {
    "methods": {}
  },
  "userdoc": {
    "methods": {}
  }
}