{
  "contractName": "Adoption",
  "abi": [
    {
      "inputs": [],
      "payable": false,
      "stateMutability": "nonpayable",
      "type": "constructor"
    },
    {
      "anonymous": false,
      "inputs": [
        {
          "indexed": false,
          "internalType": "uint256",
          "name": "petId",
          "type": "uint256"
        }
      ],
      "name": "AdoptedAnimal",
      "type": "event"
    },
    {
      "anonymous": false,
      "inputs": [
        {
          "indexed": false,
          "internalType": "uint256",
          "name": "petId",
          "type": "uint256"
        }
      ],
      "name": "ReturnedAnimal",
      "type": "event"
    },
    {
      "anonymous": false,
      "inputs": [
        {
          "indexed": true,
          "internalType": "uint256",
          "name": "_candidateId",
          "type": "uint256"
        }
      ],
      "name": "votedEvent",
      "type": "event"
    },
    {
      "constant": true,
      "inputs": [
        {
          "internalType": "uint256",
          "name": "",
          "type": "uint256"
        }
      ],
      "name": "adopters",
      "outputs": [
        {
          "internalType": "address",
          "name": "",
          "type": "address"
        }
      ],
      "payable": false,
      "stateMutability": "view",
      "type": "function"
    },
    {
      "constant": true,
      "inputs": [
        {
          "internalType": "uint256",
          "name": "",
          "type": "uint256"
        }
      ],
      "name": "candidates",
      "outputs": [
        {
          "internalType": "uint256",
          "name": "id",
          "type": "uint256"
        },
        {
          "internalType": "string",
          "name": "name",
          "type": "string"
        },
        {
          "internalType": "uint256",
          "name": "voteCount",
          "type": "uint256"
        }
      ],
      "payable": false,
      "stateMutability": "view",
      "type": "function"
    },
    {
      "constant": true,
      "inputs": [],
      "name": "candidatesCount",
      "outputs": [
        {
          "internalType": "uint256",
          "name": "",
          "type": "uint256"
        }
      ],
      "payable": false,
      "stateMutability": "view",
      "type": "function"
    },
    {
      "constant": true,
      "inputs": [
        {
          "internalType": "address",
          "name": "",
          "type": "address"
        }
      ],
      "name": "voters",
      "outputs": [
        {
          "internalType": "bool",
          "name": "",
          "type": "bool"
        }
      ],
      "payable": false,
      "stateMutability": "view",
      "type": "function"
    },
    {
      "constant": false,
      "inputs": [
        {
          "internalType": "uint256",
          "name": "petId",
          "type": "uint256"
        }
      ],
      "name": "adopt",
      "outputs": [
        {
          "internalType": "uint256",
          "name": "",
          "type": "uint256"
        }
      ],
      "payable": false,
      "stateMutability": "nonpayable",
      "type": "function"
    },
    {
      "constant": true,
      "inputs": [],
      "name": "getAdopters",
      "outputs": [
        {
          "internalType": "address[16]",
          "name": "",
          "type": "address[16]"
        }
      ],
      "payable": false,
      "stateMutability": "view",
      "type": "function"
    },
    {
      "constant": false,
      "inputs": [
        {
          "internalType": "uint256",
          "name": "petId",
          "type": "uint256"
        }
      ],
      "name": "returnAnimal",
      "outputs": [
        {
          "internalType": "uint256",
          "name": "",
          "type": "uint256"
        }
      ],
      "payable": false,
      "stateMutability": "nonpayable",
      "type": "function"
    },
    {
      "constant": false,
      "inputs": [
        {
          "internalType": "uint256",
          "name": "_candidateId",
          "type": "uint256"
        }
      ],
      "name": "vote",
      "outputs": [],
      "payable": false,
      "stateMutability": "nonpayable",
      "type": "function"
    }
  ],
  "bytecode": "0x60806040523480156200001157600080fd5b50620000586040518060400160405280600681526020017f46726965646100000000000000000000000000000000000000000000000000008152506200047860201b60201c565b6200009e6040518060400160405280600481526020017f47696e61000000000000000000000000000000000000000000000000000000008152506200047860201b60201c565b620000e46040518060400160405280600781526020017f436f6c6c696e73000000000000000000000000000000000000000000000000008152506200047860201b60201c565b6200012a6040518060400160405280600781526020017f4d656c69737361000000000000000000000000000000000000000000000000008152506200047860201b60201c565b620001706040518060400160405280600781526020017f4a65616e696e65000000000000000000000000000000000000000000000000008152506200047860201b60201c565b620001b66040518060400160405280600581526020017f456c7669610000000000000000000000000000000000000000000000000000008152506200047860201b60201c565b620001fc6040518060400160405280600781526020017f4c617469736861000000000000000000000000000000000000000000000000008152506200047860201b60201c565b620002426040518060400160405280600781526020017f436f6c656d616e000000000000000000000000000000000000000000000000008152506200047860201b60201c565b620002886040518060400160405280600781526020017f4e6963686f6c65000000000000000000000000000000000000000000000000008152506200047860201b60201c565b620002ce6040518060400160405280600481526020017f4672616e000000000000000000000000000000000000000000000000000000008152506200047860201b60201c565b620003146040518060400160405280600681526020017f4c656f6e6f7200000000000000000000000000000000000000000000000000008152506200047860201b60201c565b6200035a6040518060400160405280600481526020017f4465616e000000000000000000000000000000000000000000000000000000008152506200047860201b60201c565b620003a06040518060400160405280600981526020017f53746576656e736f6e00000000000000000000000000000000000000000000008152506200047860201b60201c565b620003e66040518060400160405280600881526020017f4b72697374696e610000000000000000000000000000000000000000000000008152506200047860201b60201c565b6200042c6040518060400160405280600581526020017f457468656c0000000000000000000000000000000000000000000000000000008152506200047860201b60201c565b620004726040518060400160405280600581526020017f54657272790000000000000000000000000000000000000000000000000000008152506200047860201b60201c565b620005a5565b601260008154809291906001019190505550604051806060016040528060125481526020018281526020016000815250601160006012548152602001908152602001600020600082015181600001556020820151816001019080519060200190620004e5929190620004f6565b506040820151816002015590505050565b828054600181600116156101000203166002900490600052602060002090601f016020900481019282601f106200053957805160ff19168380011785556200056a565b828001600101855582156200056a579182015b82811115620005695782518255916020019190600101906200054c565b5b5090506200057991906200057d565b5090565b620005a291905b808211156200059e57600081600090555060010162000584565b5090565b90565b6107e980620005b56000396000f3fe608060405234801561001057600080fd5b50600436106100885760003560e01c806343ae80d31161005b57806343ae80d3146101d45780638588b2c514610242578063a3ec138d14610284578063a9b1a854146102e057610088565b80630121b93f1461008d5780632d35a8a2146100bb5780633477ee2e146100d95780633de4eb171461018e575b600080fd5b6100b9600480360360208110156100a357600080fd5b8101908080359060200190929190505050610322565b005b6100c3610442565b6040518082815260200191505060405180910390f35b610105600480360360208110156100ef57600080fd5b8101908080359060200190929190505050610448565b6040518084815260200180602001838152602001828103825284818151815260200191508051906020019080838360005b83811015610151578082015181840152602081019050610136565b50505050905090810190601f16801561017e5780820380516001836020036101000a031916815260200191505b5094505050505060405180910390f35b61019661050a565b6040518082601060200280838360005b838110156101c15780820151818401526020810190506101a6565b5050505090500191505060405180910390f35b610200600480360360208110156101ea57600080fd5b810190808035906020019092919050505061058b565b604051808273ffffffffffffffffffffffffffffffffffffffff1673ffffffffffffffffffffffffffffffffffffffff16815260200191505060405180910390f35b61026e6004803603602081101561025857600080fd5b81019080803590602001909291905050506105be565b6040518082815260200191505060405180910390f35b6102c66004803603602081101561029a57600080fd5b81019080803573ffffffffffffffffffffffffffffffffffffffff169060200190929190505050610666565b604051808215151515815260200191505060405180910390f35b61030c600480360360208110156102f657600080fd5b8101908080359060200190929190505050610686565b6040518082815260200191505060405180910390f35b601060003373ffffffffffffffffffffffffffffffffffffffff1673ffffffffffffffffffffffffffffffffffffffff16815260200190815260200160002060009054906101000a900460ff161561037957600080fd5b60008111801561038b57506012548111155b61039457600080fd5b6001601060003373ffffffffffffffffffffffffffffffffffffffff1673ffffffffffffffffffffffffffffffffffffffff16815260200190815260200160002060006101000a81548160ff0219169083151502179055506011600082815260200190815260200160002060020160008154809291906001019190505550807ffff3c900d938d21d0990d786e819f29b8d05c1ef587b462b939609625b684b1660405160405180910390a250565b60125481565b6011602052806000526040600020600091509050806000015490806001018054600181600116156101000203166002900480601f0160208091040260200160405190810160405280929190818152602001828054600181600116156101000203166002900480156104fa5780601f106104cf576101008083540402835291602001916104fa565b820191906000526020600020905b8154815290600101906020018083116104dd57829003601f168201915b5050505050908060020154905083565b610512610791565b6000601080602002604051908101604052809291908260108015610581576020028201915b8160009054906101000a900473ffffffffffffffffffffffffffffffffffffffff1673ffffffffffffffffffffffffffffffffffffffff1681526020019060010190808311610537575b5050505050905090565b6000816010811061059857fe5b016000915054906101000a900473ffffffffffffffffffffffffffffffffffffffff1681565b60008082101580156105d15750600f8211155b6105da57600080fd5b33600083601081106105e857fe5b0160006101000a81548173ffffffffffffffffffffffffffffffffffffffff021916908373ffffffffffffffffffffffffffffffffffffffff1602179055507fab56fd8de4404d6cdebeb82369b2b2b6280895a71028d2121bb173049a3be57f826040518082815260200191505060405180910390a1819050919050565b60106020528060005260406000206000915054906101000a900460ff1681565b60008082101580156106995750600f8211155b6106a257600080fd5b3373ffffffffffffffffffffffffffffffffffffffff16600083601081106106c657fe5b0160009054906101000a900473ffffffffffffffffffffffffffffffffffffffff1673ffffffffffffffffffffffffffffffffffffffff16141561075257600080836010811061071257fe5b0160006101000a81548173ffffffffffffffffffffffffffffffffffffffff021916908373ffffffffffffffffffffffffffffffffffffffff1602179055505b7fe6e7ae460b776c1fc4a50a0a04dbcb8354df9dca23a2e2724b56bb20c757087c826040518082815260200191505060405180910390a1819050919050565b60405180610200016040528060109060208202803883398082019150509050509056fea265627a7a72315820ec4dcb3542f7ac73249f6ca642d34f19b2e281f1385e006ab3f387e8dc9a2f6764736f6c63430005110032",
  "source": "pragma solidity ^0.5.0;\n\ncontract Adoption {\n\taddress[16] public adopters;\n\n\tevent AdoptedAnimal(uint petId);\n\n\t// Adopting a pet\n\tfunction adopt(uint petId) public returns (uint) {\n  \t\trequire(petId >= 0 && petId <= 15);\n\n  \t\tadopters[petId] = msg.sender;\n\n\t\temit AdoptedAnimal(petId);\n\n \t\treturn petId;\n\t}\n\n\t// Retrieving the adopters\n\tfunction getAdopters() public view returns (address[16] memory) {\n \t \treturn adopters;\n\t}\n\n\n\n\n\n    \tevent ReturnedAnimal(uint petId);\n\n    \tfunction returnAnimal(uint petId) public returns (uint) {\n        \trequire(petId >= 0 && petId <= 15);\n\n        \t// If the animal has been adopted by msg.sender, the animal can be returned\n        \tif (adopters[petId] == msg.sender) {\n            \t\t// \"Return\" an animal by setting the address of it's adopter back to 0\n            \t\tadopters[petId] = address(0);\n        \t}\n\n        \temit ReturnedAnimal(petId);\n\n        \treturn petId;\n    \t}\n\n\t// Model a Candidate for voting\n\tstruct Candidate {\n\t\tuint id;\n\t\tstring name;\n\t\tuint voteCount;\n\t}\n\tmapping(address => bool) public voters;\n\tmapping(uint => Candidate) public candidates;\n\tuint public candidatesCount;\n\n\tevent votedEvent (\n\t\tuint indexed _candidateId\n\t);\n\n\tconstructor () public {\n\t\taddCandidate(\"Frieda\");\n\t\taddCandidate(\"Gina\");\n\t\taddCandidate(\"Collins\");\n\t\taddCandidate(\"Melissa\");\n\t\taddCandidate(\"Jeanine\");\n\t\taddCandidate(\"Elvia\");\n\t\taddCandidate(\"Latisha\");\n\t\taddCandidate(\"Coleman\");\n\t\taddCandidate(\"Nichole\");\n\t\taddCandidate(\"Fran\");\n\t\taddCandidate(\"Leonor\");\n\t\taddCandidate(\"Dean\");\n\t\taddCandidate(\"Stevenson\");\n\t\taddCandidate(\"Kristina\");\n\t\taddCandidate(\"Ethel\");\n\t\taddCandidate(\"Terry\");\n\t}\n\n\tfunction addCandidate(string memory _name) private {\n\t\tcandidatesCount ++;\n\t\tcandidates[candidatesCount] = Candidate(candidatesCount, _name, 0);\n\t}\n\n\tfunction vote(uint _candidateId) public {\n                //can not vote more than once\n\t\trequire(!voters[msg.sender]);\n\t\trequire(_candidateId > 0 && _candidateId <= candidatesCount);\n\t\t// record vote status\n\t\tvoters[msg.sender] = true;\n\t\t// update the vote Count\n\t\tcandidates[_candidateId].voteCount ++;\n\n\t\temit votedEvent(_candidateId);\n\t}\n\n\n}",
  "sourcePath": "/Users/wuyuemeng/Desktop/pet-shop-box-master/contracts/Adoption.sol",
  "compiler": {
    "name": "solc",
    "version": "0.5.17+commit.d19bba13.Emscripten.clang"
  },
  "schemaVersion": "3.4.14",
  "updatedAt": "2023-07-19T21:50:57.711Z",
  "devdoc": {
    "methods": {}
  },
  "userdoc": {
    "methods": {}
  }
}