{
  "contractName": "Adoption",
  "abi": [
    {
      "inputs": [],
      "payable": false,
      "stateMutability": "nonpayable",
      "type": "constructor"
    },
    {
      "anonymous": false,
      "inputs": [
        {
          "indexed": false,
          "internalType": "uint256",
          "name": "petId",
          "type": "uint256"
        }
      ],
      "name": "AdoptedAnimal",
      "type": "event"
    },
    {
      "anonymous": false,
      "inputs": [
        {
          "indexed": false,
          "internalType": "uint256",
          "name": "petId",
          "type": "uint256"
        }
      ],
      "name": "ReturnAnimal",
      "type": "event"
    },
    {
      "anonymous": false,
      "inputs": [
        {
          "indexed": false,
          "internalType": "uint256",
          "name": "petId",
          "type": "uint256"
        }
      ],
      "name": "voteAnimal",
      "type": "event"
    },
    {
      "constant": true,
      "inputs": [],
      "name": "BXCount",
      "outputs": [
        {
          "internalType": "uint256",
          "name": "",
          "type": "uint256"
        }
      ],
      "payable": false,
      "stateMutability": "view",
      "type": "function"
    },
    {
      "constant": true,
      "inputs": [],
      "name": "FBCount",
      "outputs": [
        {
          "internalType": "uint256",
          "name": "",
          "type": "uint256"
        }
      ],
      "payable": false,
      "stateMutability": "view",
      "type": "function"
    },
    {
      "constant": true,
      "inputs": [],
      "name": "GRCount",
      "outputs": [
        {
          "internalType": "uint256",
          "name": "",
          "type": "uint256"
        }
      ],
      "payable": false,
      "stateMutability": "view",
      "type": "function"
    },
    {
      "constant": true,
      "inputs": [],
      "name": "STCount",
      "outputs": [
        {
          "internalType": "uint256",
          "name": "",
          "type": "uint256"
        }
      ],
      "payable": false,
      "stateMutability": "view",
      "type": "function"
    },
    {
      "constant": true,
      "inputs": [
        {
          "internalType": "uint256",
          "name": "",
          "type": "uint256"
        }
      ],
      "name": "adopters",
      "outputs": [
        {
          "internalType": "address",
          "name": "",
          "type": "address"
        }
      ],
      "payable": false,
      "stateMutability": "view",
      "type": "function"
    },
    {
      "constant": true,
      "inputs": [
        {
          "internalType": "uint256",
          "name": "",
          "type": "uint256"
        }
      ],
      "name": "candidates",
      "outputs": [
        {
          "internalType": "uint256",
          "name": "id",
          "type": "uint256"
        },
        {
          "internalType": "string",
          "name": "name",
          "type": "string"
        },
        {
          "internalType": "uint256",
          "name": "count",
          "type": "uint256"
        },
        {
          "internalType": "string",
          "name": "breed",
          "type": "string"
        }
      ],
      "payable": false,
      "stateMutability": "view",
      "type": "function"
    },
    {
      "constant": true,
      "inputs": [],
      "name": "petsCount",
      "outputs": [
        {
          "internalType": "uint256",
          "name": "",
          "type": "uint256"
        }
      ],
      "payable": false,
      "stateMutability": "view",
      "type": "function"
    },
    {
      "constant": true,
      "inputs": [
        {
          "internalType": "address",
          "name": "",
          "type": "address"
        }
      ],
      "name": "voters",
      "outputs": [
        {
          "internalType": "bool",
          "name": "",
          "type": "bool"
        }
      ],
      "payable": false,
      "stateMutability": "view",
      "type": "function"
    },
    {
      "constant": false,
      "inputs": [
        {
          "internalType": "uint256",
          "name": "petId",
          "type": "uint256"
        }
      ],
      "name": "adopt",
      "outputs": [
        {
          "internalType": "uint256",
          "name": "",
          "type": "uint256"
        }
      ],
      "payable": false,
      "stateMutability": "nonpayable",
      "type": "function"
    },
    {
      "constant": true,
      "inputs": [],
      "name": "getAdopters",
      "outputs": [
        {
          "internalType": "address[16]",
          "name": "",
          "type": "address[16]"
        }
      ],
      "payable": false,
      "stateMutability": "view",
      "type": "function"
    },
    {
      "constant": false,
      "inputs": [
        {
          "internalType": "uint256",
          "name": "petId",
          "type": "uint256"
        }
      ],
      "name": "returnBack",
      "outputs": [
        {
          "internalType": "uint256",
          "name": "",
          "type": "uint256"
        }
      ],
      "payable": false,
      "stateMutability": "nonpayable",
      "type": "function"
    },
    {
      "constant": false,
      "inputs": [
        {
          "internalType": "uint256",
          "name": "petId",
          "type": "uint256"
        }
      ],
      "name": "vote",
      "outputs": [],
      "payable": false,
      "stateMutability": "nonpayable",
      "type": "function"
    },
    {
      "constant": false,
      "inputs": [],
      "name": "mostAdopted",
      "outputs": [
        {
          "internalType": "string",
          "name": "",
          "type": "string"
        }
      ],
      "payable": false,
      "stateMutability": "nonpayable",
      "type": "function"
    }
  ],
  "bytecode": "0x60806040523480156200001157600080fd5b506200008e6040518060400160405280600681526020017f46726965646100000000000000000000000000000000000000000000000000008152506040518060400160405280601081526020017f53636f7474697368205465727269657200000000000000000000000000000000815250620007d860201b60201c565b6200010a6040518060400160405280600481526020017f47696e61000000000000000000000000000000000000000000000000000000008152506040518060400160405280601081526020017f53636f7474697368205465727269657200000000000000000000000000000000815250620007d860201b60201c565b620001866040518060400160405280600781526020017f436f6c6c696e73000000000000000000000000000000000000000000000000008152506040518060400160405280600e81526020017f4672656e63682042756c6c646f67000000000000000000000000000000000000815250620007d860201b60201c565b620002026040518060400160405280600781526020017f4d656c69737361000000000000000000000000000000000000000000000000008152506040518060400160405280600581526020017f426f786572000000000000000000000000000000000000000000000000000000815250620007d860201b60201c565b6200027e6040518060400160405280600781526020017f4a65616e696e65000000000000000000000000000000000000000000000000008152506040518060400160405280600e81526020017f4672656e63682042756c6c646f67000000000000000000000000000000000000815250620007d860201b60201c565b620002fa6040518060400160405280600581526020017f456c7669610000000000000000000000000000000000000000000000000000008152506040518060400160405280600e81526020017f4672656e63682042756c6c646f67000000000000000000000000000000000000815250620007d860201b60201c565b620003766040518060400160405280600781526020017f4c617469736861000000000000000000000000000000000000000000000000008152506040518060400160405280601081526020017f476f6c64656e2052657472696576657200000000000000000000000000000000815250620007d860201b60201c565b620003f26040518060400160405280600781526020017f436f6c656d616e000000000000000000000000000000000000000000000000008152506040518060400160405280601081526020017f476f6c64656e2052657472696576657200000000000000000000000000000000815250620007d860201b60201c565b6200046e6040518060400160405280600781526020017f4e6963686f6c65000000000000000000000000000000000000000000000000008152506040518060400160405280600e81526020017f4672656e63682042756c6c646f67000000000000000000000000000000000000815250620007d860201b60201c565b620004ea6040518060400160405280600481526020017f4672616e000000000000000000000000000000000000000000000000000000008152506040518060400160405280600581526020017f426f786572000000000000000000000000000000000000000000000000000000815250620007d860201b60201c565b620005666040518060400160405280600681526020017f4c656f6e6f7200000000000000000000000000000000000000000000000000008152506040518060400160405280600581526020017f426f786572000000000000000000000000000000000000000000000000000000815250620007d860201b60201c565b620005e26040518060400160405280600481526020017f4465616e000000000000000000000000000000000000000000000000000000008152506040518060400160405280601081526020017f53636f7474697368205465727269657200000000000000000000000000000000815250620007d860201b60201c565b6200065e6040518060400160405280600981526020017f53746576656e736f6e00000000000000000000000000000000000000000000008152506040518060400160405280600e81526020017f4672656e63682042756c6c646f67000000000000000000000000000000000000815250620007d860201b60201c565b620006da6040518060400160405280600881526020017f4b72697374696e610000000000000000000000000000000000000000000000008152506040518060400160405280601081526020017f476f6c64656e2052657472696576657200000000000000000000000000000000815250620007d860201b60201c565b620007566040518060400160405280600581526020017f457468656c0000000000000000000000000000000000000000000000000000008152506040518060400160405280601081526020017f476f6c64656e2052657472696576657200000000000000000000000000000000815250620007d860201b60201c565b620007d26040518060400160405280600581526020017f54657272790000000000000000000000000000000000000000000000000000008152506040518060400160405280601081526020017f476f6c64656e2052657472696576657200000000000000000000000000000000815250620007d860201b60201c565b6200092b565b6012600081548092919060010191905055506040518060800160405280601254815260200183815260200160008152602001828152506011600060125481526020019081526020016000206000820151816000015560208201518160010190805190602001906200084b9291906200087c565b50604082015181600201556060820151816003019080519060200190620008749291906200087c565b509050505050565b828054600181600116156101000203166002900490600052602060002090601f016020900481019282601f10620008bf57805160ff1916838001178555620008f0565b82800160010185558215620008f0579182015b82811115620008ef578251825591602001919060010190620008d2565b5b509050620008ff919062000903565b5090565b6200092891905b80821115620009245760008160009055506001016200090a565b5090565b90565b6110e2806200093b6000396000f3fe608060405234801561001057600080fd5b50600436106100cf5760003560e01c80638998c00f1161008c578063c69d032611610066578063c69d0326146103cf578063d1f143e114610452578063ea1ab98014610494578063fd8c175d146104b2576100cf565b80638998c00f1461033757806397ccc24d14610355578063a3ec138d14610373576100cf565b80630121b93f146100d45780633477ee2e146101025780633de4eb171461022357806343ae80d314610269578063467e67ec146102d75780638588b2c5146102f5575b600080fd5b610100600480360360208110156100ea57600080fd5b81019080803590602001909291905050506104d0565b005b61012e6004803603602081101561011857600080fd5b81019080803590602001909291905050506109cb565b604051808581526020018060200184815260200180602001838103835286818151815260200191508051906020019080838360005b8381101561017e578082015181840152602081019050610163565b50505050905090810190601f1680156101ab5780820380516001836020036101000a031916815260200191505b50838103825284818151815260200191508051906020019080838360005b838110156101e45780820151818401526020810190506101c9565b50505050905090810190601f1680156102115780820380516001836020036101000a031916815260200191505b50965050505050505060405180910390f35b61022b610b2b565b6040518082601060200280838360005b8381101561025657808201518184015260208101905061023b565b5050505090500191505060405180910390f35b6102956004803603602081101561027f57600080fd5b8101908080359060200190929190505050610bac565b604051808273ffffffffffffffffffffffffffffffffffffffff1673ffffffffffffffffffffffffffffffffffffffff16815260200191505060405180910390f35b6102df610bdf565b6040518082815260200191505060405180910390f35b6103216004803603602081101561030b57600080fd5b8101908080359060200190929190505050610be5565b6040518082815260200191505060405180910390f35b61033f610c8d565b6040518082815260200191505060405180910390f35b61035d610c93565b6040518082815260200191505060405180910390f35b6103b56004803603602081101561038957600080fd5b81019080803573ffffffffffffffffffffffffffffffffffffffff169060200190929190505050610c99565b604051808215151515815260200191505060405180910390f35b6103d7610cb9565b6040518080602001828103825283818151815260200191508051906020019080838360005b838110156104175780820151818401526020810190506103fc565b50505050905090810190601f1680156104445780820380516001836020036101000a031916815260200191505b509250505060405180910390f35b61047e6004803603602081101561046857600080fd5b8101908080359060200190929190505050610e9f565b6040518082815260200191505060405180910390f35b61049c610faa565b6040518082815260200191505060405180910390f35b6104ba610fb0565b6040518082815260200191505060405180910390f35b600081101580156104e25750600f8111155b6104eb57600080fd5b60116000828152602001908152602001600020600201600081548092919060010191905055506001601060003373ffffffffffffffffffffffffffffffffffffffff1673ffffffffffffffffffffffffffffffffffffffff16815260200190815260200160002060006101000a81548160ff021916908315150217905550610656601160008381526020019081526020016000206003018054600181600116156101000203166002900480601f0160208091040260200160405190810160405280929190818152602001828054600181600116156101000203166002900480156106165780601f106105eb57610100808354040283529160200191610616565b820191906000526020600020905b8154815290600101906020018083116105f957829003601f168201915b50505050506040518060400160405280601081526020017f53636f7474697368205465727269657200000000000000000000000000000000815250610fb6565b1561067257601360008154809291906001019190505550610991565b61075f601160008381526020019081526020016000206003018054600181600116156101000203166002900480601f01602080910402602001604051908101604052809291908181526020018280546001816001161561010002031660029004801561071f5780601f106106f45761010080835404028352916020019161071f565b820191906000526020600020905b81548152906001019060200180831161070257829003601f168201915b50505050506040518060400160405280600e81526020017f4672656e63682042756c6c646f67000000000000000000000000000000000000815250610fb6565b1561077b57601460008154809291906001019190505550610990565b610868601160008381526020019081526020016000206003018054600181600116156101000203166002900480601f0160208091040260200160405190810160405280929190818152602001828054600181600116156101000203166002900480156108285780601f106107fd57610100808354040283529160200191610828565b820191906000526020600020905b81548152906001019060200180831161080b57829003601f168201915b50505050506040518060400160405280600581526020017f426f786572000000000000000000000000000000000000000000000000000000815250610fb6565b156108845760156000815480929190600101919050555061098f565b610971601160008381526020019081526020016000206003018054600181600116156101000203166002900480601f0160208091040260200160405190810160405280929190818152602001828054600181600116156101000203166002900480156109315780601f1061090657610100808354040283529160200191610931565b820191906000526020600020905b81548152906001019060200180831161091457829003601f168201915b50505050506040518060400160405280601081526020017f476f6c64656e2052657472696576657200000000000000000000000000000000815250610fb6565b1561098d5760166000815480929190600101919050555061098e565b5b5b5b5b7f7be1c3063d6eb5b218c4bb54b97a5e82a6f8e5bf10b3e6e34e5e9877a4796214816040518082815260200191505060405180910390a150565b6011602052806000526040600020600091509050806000015490806001018054600181600116156101000203166002900480601f016020809104026020016040519081016040528092919081815260200182805460018160011615610100020316600290048015610a7d5780601f10610a5257610100808354040283529160200191610a7d565b820191906000526020600020905b815481529060010190602001808311610a6057829003601f168201915b505050505090806002015490806003018054600181600116156101000203166002900480601f016020809104026020016040519081016040528092919081815260200182805460018160011615610100020316600290048015610b215780601f10610af657610100808354040283529160200191610b21565b820191906000526020600020905b815481529060010190602001808311610b0457829003601f168201915b5050505050905084565b610b3361108a565b6000601080602002604051908101604052809291908260108015610ba2576020028201915b8160009054906101000a900473ffffffffffffffffffffffffffffffffffffffff1673ffffffffffffffffffffffffffffffffffffffff1681526020019060010190808311610b58575b5050505050905090565b60008160108110610bb957fe5b016000915054906101000a900473ffffffffffffffffffffffffffffffffffffffff1681565b60155481565b6000808210158015610bf85750600f8211155b610c0157600080fd5b3360008360108110610c0f57fe5b0160006101000a81548173ffffffffffffffffffffffffffffffffffffffff021916908373ffffffffffffffffffffffffffffffffffffffff1602179055507fab56fd8de4404d6cdebeb82369b2b2b6280895a71028d2121bb173049a3be57f826040518082815260200191505060405180910390a1819050919050565b60145481565b60165481565b60106020528060005260406000206000915054906101000a900460ff1681565b606060145460135410158015610cd3575060155460135410155b8015610ce3575060165460135410155b15610d25576040518060400160405280601081526020017f53636f74746973682054657272696572000000000000000000000000000000008152509050610e9c565b60135460145410158015610d3d575060155460145410155b8015610d4d575060165460145410155b15610d8f576040518060400160405280600e81526020017f4672656e63682042756c6c646f670000000000000000000000000000000000008152509050610e9c565b60135460155410158015610da7575060145460155410155b8015610db7575060165460155410155b15610df9576040518060400160405280600581526020017f426f7865720000000000000000000000000000000000000000000000000000008152509050610e9c565b60135460165410158015610e11575060145460165410155b8015610e21575060155460165410155b15610e63576040518060400160405280601081526020017f476f6c64656e20526574726965766572000000000000000000000000000000008152509050610e9c565b6040518060400160405280601881526020017f4e6f206272656564206973206d6f73742061646f70746564000000000000000081525090505b90565b6000808210158015610eb25750600f8211155b610ebb57600080fd5b3373ffffffffffffffffffffffffffffffffffffffff1660008360108110610edf57fe5b0160009054906101000a900473ffffffffffffffffffffffffffffffffffffffff1673ffffffffffffffffffffffffffffffffffffffff161415610f6b576000808360108110610f2b57fe5b0160006101000a81548173ffffffffffffffffffffffffffffffffffffffff021916908373ffffffffffffffffffffffffffffffffffffffff1602179055505b7fc2f0686a6580a9f7cc6700dc686f543b4f94c9ba07f0ef6a3a5c6a06eb378f63826040518082815260200191505060405180910390a1819050919050565b60135481565b60125481565b60006060839050606083905060008251905081518114610fdc5760009350505050611084565b60008090505b8181101561107b57828181518110610ff657fe5b602001015160f81c60f81b7effffffffffffffffffffffffffffffffffffffffffffffffffffffffffffff191684828151811061102f57fe5b602001015160f81c60f81b7effffffffffffffffffffffffffffffffffffffffffffffffffffffffffffff19161461106e576000945050505050611084565b8080600101915050610fe2565b50600193505050505b92915050565b60405180610200016040528060109060208202803883398082019150509050509056fea265627a7a72315820ced52517ed1546a4763ad58d6b303c3561fe245b2fd4c0dc0aa5d093b2a7d24d64736f6c63430005110032",
  "source": "pragma solidity ^0.5.0;\r\n\r\ncontract Adoption {\r\n\taddress[16] public adopters;\r\n\r\n\tevent AdoptedAnimal(uint petId);\r\n\r\n\t// Adopting a pet\r\n\tfunction adopt(uint petId) public returns (uint) {\r\n  \t\trequire(petId >= 0 && petId <= 15);\r\n\r\n  \t\tadopters[petId] = msg.sender;\r\n\r\n\t\temit AdoptedAnimal(petId);\r\n\r\n \t\treturn petId;\r\n\t}\r\n\r\n\t// Retrieving the adopters\r\n\tfunction getAdopters() public view returns (address[16] memory) {\r\n \t \treturn adopters;\r\n\t}\r\n\r\n    event ReturnAnimal(uint petId);\r\n\r\n    function returnBack(uint petId) public returns (uint) {\r\n        require(petId >= 0 && petId <= 15);\r\n\r\n        if (adopters[petId] == msg.sender) {\r\n            adopters[petId] = address(0);\r\n        }\r\n\r\n        emit ReturnAnimal(petId);\r\n\r\n        return petId;\r\n    }\r\n\r\n\tstruct Pet {\r\n\t\tuint id;\r\n\t\tstring name;\r\n\t\tuint count;\r\n\t\tstring breed;\r\n\t}\r\n\r\n\tmapping(address => bool) public voters;\r\n\tmapping(uint => Pet) public candidates;\r\n\tuint public petsCount;\r\n\tuint public STCount; //Scottish Terrier\r\n\t\tuint public FBCount; //French Bulldog\r\n\t\tuint public BXCount; //Boxer\r\n\t\tuint public GRCount; //Golden Retrieve\r\n\r\n\tfunction addPet(string memory _name, string memory _breed) private {\r\n\t\tpetsCount ++;\r\n\t\t\r\n\t\tcandidates[petsCount] = Pet(petsCount, _name, 0, _breed);\r\n\t}\r\n\r\n\tconstructor () public {\r\n\t\taddPet(\"Frieda\", \"Scottish Terrier\");\r\n\t\taddPet(\"Gina\", \"Scottish Terrier\");\r\n\t\taddPet(\"Collins\", \"French Bulldog\");\r\n\t\taddPet(\"Melissa\", \"Boxer\");\r\n\t\taddPet(\"Jeanine\", \"French Bulldog\");\r\n\t\taddPet(\"Elvia\", \"French Bulldog\");\r\n\t\taddPet(\"Latisha\", \"Golden Retriever\");\r\n\t\taddPet(\"Coleman\", \"Golden Retriever\");\r\n\t\taddPet(\"Nichole\", \"French Bulldog\");\r\n\t\taddPet(\"Fran\", \"Boxer\");\r\n\t\taddPet(\"Leonor\", \"Boxer\");\r\n\t\taddPet(\"Dean\", \"Scottish Terrier\");\r\n\t\taddPet(\"Stevenson\", \"French Bulldog\");\r\n\t\taddPet(\"Kristina\", \"Golden Retriever\");\r\n\t\taddPet(\"Ethel\", \"Golden Retriever\");\r\n\t\taddPet(\"Terry\", \"Golden Retriever\");\r\n\t}\r\n\r\n\tevent voteAnimal (uint petId);\r\n\r\n\tfunction stringsEquals(string memory s1, string memory s2) private pure returns (bool) {\r\n        bytes memory b1 = bytes(s1);\r\n        bytes memory b2 = bytes(s2);\r\n        uint256 l1 = b1.length;\r\n        if (l1 != b2.length) return false;\r\n        for (uint256 i=0; i<l1; i++) {\r\n            if (b1[i] != b2[i]) return false;\r\n        }\r\n        return true;\r\n    }\r\n\r\n\r\n\tfunction vote(uint petId) public {\r\n\t\trequire(petId >= 0 && petId <= 15);\r\n\t\tcandidates[petId].count ++;\r\n\t\tvoters[msg.sender] = true;\r\n\r\n\t\tif (stringsEquals(candidates[petId].breed, \"Scottish Terrier\")) {\r\n\t\t\tSTCount ++;\r\n\t\t} else if (stringsEquals(candidates[petId].breed, \"French Bulldog\")) {\r\n\t\t\tFBCount ++;\r\n\t\t} else if (stringsEquals(candidates[petId].breed, \"Boxer\")) {\r\n\t\t\tBXCount ++;\r\n\t\t} else if (stringsEquals(candidates[petId].breed, \"Golden Retriever\")) {\r\n\t\t\tGRCount ++;\r\n\t\t} else {\r\n\t\t\t//error Invalid breed\r\n\t\t}\r\n\r\n\t\temit voteAnimal(petId);\r\n\t}\r\n\r\n\tfunction mostAdopted() public returns (string memory){\r\n\t\tif (STCount >= FBCount && STCount >= BXCount && STCount >= GRCount) {\r\n\t\t\treturn \"Scottish Terrier\";\r\n\t\t} else if (FBCount >= STCount && FBCount >= BXCount && FBCount >= GRCount) {\r\n\t\t\treturn \"French Bulldog\";\r\n\t\t} else if (BXCount >= STCount && BXCount >= FBCount && BXCount >= GRCount) {\r\n\t\t\treturn \"Boxer\";\r\n\t\t} else if (GRCount >= STCount && GRCount >= FBCount && GRCount >= BXCount) {\r\n\t\t\treturn \"Golden Retriever\";\r\n\t\t} else {\r\n\t\t\treturn \"No breed is most adopted\";\r\n\t\t}\r\n\t}\r\n\r\n\r\n}",
  "sourcePath": "C:\\Users\\17742\\OneDrive\\桌面\\Project\\APS1050_final\\contracts\\Adoption.sol",
  "compiler": {
    "name": "solc",
    "version": "0.5.17+commit.d19bba13.Emscripten.clang"
  },
  "schemaVersion": "3.4.15",
  "updatedAt": "2023-08-19T00:32:44.452Z",
  "devdoc": {
    "methods": {}
  },
  "userdoc": {
    "methods": {}
  }
}