{
  "contractName": "MostAdoptedBreed",
  "abi": [
    {
      "constant": true,
      "inputs": [
        {
          "internalType": "uint256",
          "name": "",
          "type": "uint256"
        }
      ],
      "name": "breeds",
      "outputs": [
        {
          "internalType": "string",
          "name": "breedName",
          "type": "string"
        },
        {
          "internalType": "uint256",
          "name": "adoptCount",
          "type": "uint256"
        }
      ],
      "payable": false,
      "stateMutability": "view",
      "type": "function"
    },
    {
      "constant": true,
      "inputs": [],
      "name": "breedsCount",
      "outputs": [
        {
          "internalType": "uint256",
          "name": "",
          "type": "uint256"
        }
      ],
      "payable": false,
      "stateMutability": "view",
      "type": "function"
    },
    {
      "constant": false,
      "inputs": [
        {
          "internalType": "string",
          "name": "_breedName",
          "type": "string"
        }
      ],
      "name": "addBreed",
      "outputs": [],
      "payable": false,
      "stateMutability": "nonpayable",
      "type": "function"
    },
    {
      "constant": false,
      "inputs": [
        {
          "internalType": "string",
          "name": "_breedName",
          "type": "string"
        }
      ],
      "name": "addAdoption",
      "outputs": [],
      "payable": false,
      "stateMutability": "nonpayable",
      "type": "function"
    },
    {
      "constant": true,
      "inputs": [],
      "name": "getMostAdoptedBreed",
      "outputs": [
        {
          "internalType": "string",
          "name": "breedName",
          "type": "string"
        }
      ],
      "payable": false,
      "stateMutability": "view",
      "type": "function"
    }
  ],
  "bytecode": "0x608060405234801561001057600080fd5b5061087c806100206000396000f3fe608060405234801561001057600080fd5b50600436106100575760003560e01c80632a046f691461005c5780632c0209f5146101175780637fe536f8146101c5578063ab9e2b5d14610248578063f2bc0e1a14610303575b600080fd5b6101156004803603602081101561007257600080fd5b810190808035906020019064010000000081111561008f57600080fd5b8201836020820111156100a157600080fd5b803590602001918460018302840111640100000000831117156100c357600080fd5b91908080601f016020809104026020016040519081016040528093929190818152602001838380828437600081840152601f19601f820116905080830192505050505050509192919290505050610321565b005b6101436004803603602081101561012d57600080fd5b810190808035906020019092919050505061043c565b6040518080602001838152602001828103825284818151815260200191508051906020019080838360005b8381101561018957808201518184015260208101905061016e565b50505050905090810190601f1680156101b65780820380516001836020036101000a031916815260200191505b50935050505060405180910390f35b6101cd610505565b6040518080602001828103825283818151815260200191508051906020019080838360005b8381101561020d5780820151818401526020810190506101f2565b50505050905090810190601f16801561023a5780820380516001836020036101000a031916815260200191505b509250505060405180910390f35b6103016004803603602081101561025e57600080fd5b810190808035906020019064010000000081111561027b57600080fd5b82018360208201111561028d57600080fd5b803590602001918460018302840111640100000000831117156102af57600080fd5b91908080601f016020809104026020016040519081016040528093929190818152602001838380828437600081840152601f19601f820116905080830192505050505050509192919290505050610647565b005b61030b6106c8565b6040518082815260200191505060405180910390f35b60008090505b600054811015610437576103f16001828154811061034157fe5b90600052602060002090600202016000018054600181600116156101000203166002900480601f0160208091040260200160405190810160405280929190818152602001828054600181600116156101000203166002900480156103e65780601f106103bb576101008083540402835291602001916103e6565b820191906000526020600020905b8154815290600101906020018083116103c957829003601f168201915b5050505050836106ce565b1561042a576001818154811061040357fe5b90600052602060002090600202016001016000815480929190600101919050555050610439565b8080600101915050610327565b505b50565b6001818154811061044957fe5b9060005260206000209060020201600091509050806000018054600181600116156101000203166002900480601f0160208091040260200160405190810160405280929190818152602001828054600181600116156101000203166002900480156104f55780601f106104ca576101008083540402835291602001916104f5565b820191906000526020600020905b8154815290600101906020018083116104d857829003601f168201915b5050505050908060010154905082565b60606000809050606060405180602001604052806000815250905060008090505b60005481101561063e57826001828154811061053e57fe5b9060005260206000209060020201600101541115610631576001818154811061056357fe5b90600052602060002090600202016001015492506001818154811061058457fe5b90600052602060002090600202016000018054600181600116156101000203166002900480601f0160208091040260200160405190810160405280929190818152602001828054600181600116156101000203166002900480156106295780601f106105fe57610100808354040283529160200191610629565b820191906000526020600020905b81548152906001019060200180831161060c57829003601f168201915b505050505091505b8080600101915050610526565b50809250505090565b60008081548092919060010191905055506001604051806040016040528083815260200160008152509080600181540180825580915050906001820390600052602060002090600202016000909192909190915060008201518160000190805190602001906106b79291906107a2565b506020820151816001015550505050565b60005481565b600060608390506060839050600082519050815181146106f4576000935050505061079c565b60008090505b818110156107935782818151811061070e57fe5b602001015160f81c60f81b7effffffffffffffffffffffffffffffffffffffffffffffffffffffffffffff191684828151811061074757fe5b602001015160f81c60f81b7effffffffffffffffffffffffffffffffffffffffffffffffffffffffffffff19161461078657600094505050505061079c565b80806001019150506106fa565b50600193505050505b92915050565b828054600181600116156101000203166002900490600052602060002090601f016020900481019282601f106107e357805160ff1916838001178555610811565b82800160010185558215610811579182015b828111156108105782518255916020019190600101906107f5565b5b50905061081e9190610822565b5090565b61084491905b80821115610840576000816000905550600101610828565b5090565b9056fea265627a7a72315820dbb0c1f9ce023a337bfaba77c6857fe1e46a959f63843097d83d2f76df1c032764736f6c63430005100032",
  "source": "pragma solidity ^0.5.0;\r\n\r\ncontract MostAdoptedBreed {\r\n    struct Breed {\r\n        string breedName;\r\n        uint adoptCount;\r\n    }\r\n\r\n    uint public breedsCount;\r\n    Breed[] public breeds;\r\n\r\n    function stringsEquals(string memory s1, string memory s2) private pure returns (bool) {\r\n        bytes memory b1 = bytes(s1);\r\n        bytes memory b2 = bytes(s2);\r\n        uint256 l1 = b1.length;\r\n        if (l1 != b2.length) return false;\r\n        for (uint256 i=0; i<l1; i++) {\r\n            if (b1[i] != b2[i]) return false;\r\n        }\r\n        return true;\r\n    }\r\n\r\n    function addBreed (string memory _breedName) public {\r\n        breedsCount ++;\r\n        breeds.push(Breed(_breedName, 0));\r\n    }\r\n\r\n    function addAdoption (string memory _breedName) public {\r\n        for (uint i = 0; i < breedsCount; i++) {\r\n            if (stringsEquals(breeds[i].breedName, _breedName)) {\r\n                breeds[i].adoptCount ++;\r\n                return;\r\n            }\r\n        }\r\n    }\r\n\r\n    function getMostAdoptedBreed () public view returns (string memory breedName) {\r\n        uint maxAdoptCount = 0;\r\n        string memory maxAdoptBreedName = \"\";\r\n        for (uint i = 0; i < breedsCount; i++) {\r\n            if (breeds[i].adoptCount > maxAdoptCount) {\r\n                maxAdoptCount = breeds[i].adoptCount;\r\n                maxAdoptBreedName = breeds[i].breedName;\r\n            }\r\n        }\r\n        return maxAdoptBreedName;\r\n    }\r\n}",
  "sourcePath": "C:\\Users\\17742\\OneDrive\\桌面\\Project\\APS1050_final\\contracts\\MostAdoptedBreed.sol",
  "compiler": {
    "name": "solc",
    "version": "0.5.16+commit.9c3226ce.Emscripten.clang"
  },
  "schemaVersion": "3.4.15",
  "updatedAt": "2023-08-14T23:30:59.069Z",
  "networkType": "ethereum",
  "devdoc": {
    "methods": {}
  },
  "userdoc": {
    "methods": {}
  }
}