{
  "contractName": "PetRecord",
  "abi": [
    {
      "constant": true,
      "inputs": [
        {
          "internalType": "uint256",
          "name": "",
          "type": "uint256"
        }
      ],
      "name": "pets",
      "outputs": [
        {
          "internalType": "string",
          "name": "petName",
          "type": "string"
        },
        {
          "internalType": "string",
          "name": "ownerName",
          "type": "string"
        }
      ],
      "payable": false,
      "stateMutability": "view",
      "type": "function"
    },
    {
      "constant": true,
      "inputs": [],
      "name": "petsCount",
      "outputs": [
        {
          "internalType": "uint256",
          "name": "",
          "type": "uint256"
        }
      ],
      "payable": false,
      "stateMutability": "view",
      "type": "function"
    },
    {
      "constant": false,
      "inputs": [
        {
          "internalType": "string",
          "name": "_petname",
          "type": "string"
        },
        {
          "internalType": "string",
          "name": "_ownername",
          "type": "string"
        }
      ],
      "name": "addPet",
      "outputs": [],
      "payable": false,
      "stateMutability": "nonpayable",
      "type": "function"
    },
    {
      "constant": true,
      "inputs": [
        {
          "internalType": "string",
          "name": "_petname",
          "type": "string"
        }
      ],
      "name": "getOwnerName",
      "outputs": [
        {
          "internalType": "string",
          "name": "ownerName",
          "type": "string"
        }
      ],
      "payable": false,
      "stateMutability": "view",
      "type": "function"
    }
  ],
  "bytecode": "0x608060405234801561001057600080fd5b50610994806100206000396000f3fe608060405234801561001057600080fd5b506004361061004c5760003560e01c80631429ab3714610051578063932ce2f214610185578063cfb869bf146102d7578063fd8c175d146103ea575b600080fd5b61010a6004803603602081101561006757600080fd5b810190808035906020019064010000000081111561008457600080fd5b82018360208201111561009657600080fd5b803590602001918460018302840111640100000000831117156100b857600080fd5b91908080601f016020809104026020016040519081016040528093929190818152602001838380828437600081840152601f19601f820116905080830192505050505050509192919290505050610408565b6040518080602001828103825283818151815260200191508051906020019080838360005b8381101561014a57808201518184015260208101905061012f565b50505050905090810190601f1680156101775780820380516001836020036101000a031916815260200191505b509250505060405180910390f35b6102d56004803603604081101561019b57600080fd5b81019080803590602001906401000000008111156101b857600080fd5b8201836020820111156101ca57600080fd5b803590602001918460018302840111640100000000831117156101ec57600080fd5b91908080601f016020809104026020016040519081016040528093929190818152602001838380828437600081840152601f19601f8201169050808301925050505050505091929192908035906020019064010000000081111561024f57600080fd5b82018360208201111561026157600080fd5b8035906020019184600183028401116401000000008311171561028357600080fd5b91908080601f016020809104026020016040519081016040528093929190818152602001838380828437600081840152601f19601f8201169050808301925050505050505091929192905050506105ea565b005b610303600480360360208110156102ed57600080fd5b810190808035906020019092919050505061067f565b604051808060200180602001838103835285818151815260200191508051906020019080838360005b8381101561034757808201518184015260208101905061032c565b50505050905090810190601f1680156103745780820380516001836020036101000a031916815260200191505b50838103825284818151815260200191508051906020019080838360005b838110156103ad578082015181840152602081019050610392565b50505050905090810190601f1680156103da5780820380516001836020036101000a031916815260200191505b5094505050505060405180910390f35b6103f26107e0565b6040518082815260200191505060405180910390f35b606060008090505b6001548110156105ab576104da6000828154811061042a57fe5b90600052602060002090600202016000018054600181600116156101000203166002900480601f0160208091040260200160405190810160405280929190818152602001828054600181600116156101000203166002900480156104cf5780601f106104a4576101008083540402835291602001916104cf565b820191906000526020600020905b8154815290600101906020018083116104b257829003601f168201915b5050505050846107e6565b1561059e57600081815481106104ec57fe5b90600052602060002090600202016001018054600181600116156101000203166002900480601f0160208091040260200160405190810160405280929190818152602001828054600181600116156101000203166002900480156105915780601f1061056657610100808354040283529160200191610591565b820191906000526020600020905b81548152906001019060200180831161057457829003601f168201915b50505050509150506105e5565b8080600101915050610410565b506040518060400160405280600481526020017f4e6f6e650000000000000000000000000000000000000000000000000000000081525090505b919050565b60006040518060400160405280848152602001838152509080600181540180825580915050906001820390600052602060002090600202016000909192909190915060008201518160000190805190602001906106489291906108ba565b5060208201518160010190805190602001906106659291906108ba565b505050506001600081548092919060010191905055505050565b6000818154811061068c57fe5b9060005260206000209060020201600091509050806000018054600181600116156101000203166002900480601f0160208091040260200160405190810160405280929190818152602001828054600181600116156101000203166002900480156107385780601f1061070d57610100808354040283529160200191610738565b820191906000526020600020905b81548152906001019060200180831161071b57829003601f168201915b505050505090806001018054600181600116156101000203166002900480601f0160208091040260200160405190810160405280929190818152602001828054600181600116156101000203166002900480156107d65780601f106107ab576101008083540402835291602001916107d6565b820191906000526020600020905b8154815290600101906020018083116107b957829003601f168201915b5050505050905082565b60015481565b6000606083905060608390506000825190508151811461080c57600093505050506108b4565b60008090505b818110156108ab5782818151811061082657fe5b602001015160f81c60f81b7effffffffffffffffffffffffffffffffffffffffffffffffffffffffffffff191684828151811061085f57fe5b602001015160f81c60f81b7effffffffffffffffffffffffffffffffffffffffffffffffffffffffffffff19161461089e5760009450505050506108b4565b8080600101915050610812565b50600193505050505b92915050565b828054600181600116156101000203166002900490600052602060002090601f016020900481019282601f106108fb57805160ff1916838001178555610929565b82800160010185558215610929579182015b8281111561092857825182559160200191906001019061090d565b5b509050610936919061093a565b5090565b61095c91905b80821115610958576000816000905550600101610940565b5090565b9056fea265627a7a723158208f5916bbae34d4b86d83f6ce99bb6ef985fdc2e58c45d88fec1085254e0476d664736f6c63430005100032",
  "source": "pragma solidity ^0.5.0;\r\n\r\ncontract PetRecord{\r\n    // Model a pet\r\n    struct Pet {\r\n        string petName;\r\n        string ownerName;\r\n    }\r\n\r\n    Pet[] public pets;\r\n    uint public petsCount;\r\n\r\n    function stringsEquals(string memory s1, string memory s2) private pure returns (bool) {\r\n        bytes memory b1 = bytes(s1);\r\n        bytes memory b2 = bytes(s2);\r\n        uint256 l1 = b1.length;\r\n        if (l1 != b2.length) return false;\r\n        for (uint256 i=0; i<l1; i++) {\r\n            if (b1[i] != b2[i]) return false;\r\n        }\r\n        return true;\r\n    }\r\n\r\n    function addPet (string memory _petname, string memory _ownername) public {\r\n        pets.push(Pet(_petname, _ownername));\r\n        petsCount ++;\r\n    }\r\n\r\n    function getOwnerName (string memory _petname) public view returns (string memory ownerName) {\r\n        for (uint i = 0; i < petsCount; i++) {\r\n            if (stringsEquals(pets[i].petName, _petname)) {\r\n                return pets[i].ownerName;\r\n            }\r\n        }\r\n        return \"None\";\r\n    }\r\n}",
  "sourcePath": "C:\\Users\\17742\\OneDrive\\桌面\\Project\\APS1050_final\\contracts\\PetRecord.sol",
  "compiler": {
    "name": "solc",
    "version": "0.5.16+commit.9c3226ce.Emscripten.clang"
  },
  "schemaVersion": "3.4.15",
  "updatedAt": "2023-08-14T23:30:58.994Z",
  "networkType": "ethereum",
  "devdoc": {
    "methods": {}
  },
  "userdoc": {
    "methods": {}
  }
}